:1000000050240020FD000000F9000000F90000006D
:1000100000000000000000000000000000000000E0
:10002000000000000000000000000000F9000000D7
:100030000000000000000000F9000000F9000000CE
:10004000F9000000F9000000F9000000F9000000CC
:1000500039020000F9000000F9000000F90000007A
:10006000F9000000F9000000F9000000F9000000AC
:10007000F9000000F9000000F9000000F90000009C
:10008000F9000000F9000000F9000000F90000008C
:10009000F90000000000000000000000F90000006E
:1000A000F9000000F9000000F9000000F90000006C
:1000B00010B5064C2378002B07D1054B002B02D03E
:1000C000044800E000BF0123237010BD2C04002071
:1000D0000000000034050000044B10B5002B03D0D5
:1000E0000349044800E000BF10BDC0460000000006
:1000F0003004002034050000FEE7000013491448D6
:1001000010B581420AD0134BC41E0022A34203D370
:1001100003331A1A920892000F4B98470F48104B5E
:10012000C11E0022994203D803331A1A9208920082
:1001300000210C4B9847FF220B4B93430B4A9360D3
:100140000B4B98470B4B9847FEE7C0463405000021
:10015000000000202C040020BD0200002C04002020
:1001600050040020610300000000000000ED00E0EA
:100170007902000079010000234BF0B55968234A49
:1001800001200A435A605988214A0A435A80214B68
:10019000214A22491A601A610A78D2B20A700721EC
:1001A0001F4A11701F4A013911701A69043902433C
:1001B0001A611A690A431A6162B640221A4DC126B1
:1001C0002C6AFF2714432C621025184CB6002560BA
:1001D000A559BD432A43A251154AD468204380241F
:1001E000D0609069640308439061107808431070F0
:1001F00010481A6A0A4203D11A6922431A61F8E7C1
:100200001A690240FAE7C046000C004003060100EC
:100210000543000000440041000830003044004124
:1002200040440041414400410004004000E100E03E
:1002300000180040FFFFEFFF01230B4A10B51169C2
:100240000A480B4313610378094A012B08D1802126
:1002500014698903214311615A425341037010BD4F
:100260001169044C2140F6E70018004048040020C2
:1002700000440041FFFFDFFF70B50C4D0C4E761BB4
:10028000B61005D0002408CD01349847A642FAD113
:1002900000F03EF9074D084E761BB61005D000243D
:1002A00008CD01349847A642FAD170BD1C05000064
:1002B0001C0500001C05000024050000F0B5C64622
:1002C00000B50F2A41D903270D003E0005430C005D
:1002D00003002E402F423DD11500103D2D09A846A8
:1002E0002D01AC46844427681D001F6067685F606D
:1002F000A7689F60E7681034DF6010336545F2D16E
:1003000045460F230C2401352D0149191340451989
:10031000144222D08C59AC5104369C1B032CF9D8C2
:10032000043B9B0801339B00ED18C91803231A40B6
:10033000561E002A06D00023CC5C1A00EC54013370
:100340009642F9D180BCB846F0BD0500561E002A81
:10035000F1D1F7E70500561EEDE71A00F6E7C046B3
:10036000F0B50500830749D0541E002A45D003008C
:100370000326CAB202E00135013C3ED301332A70A4
:100380003342F8D1032C30D9FF220A40150215431D
:100390002A0415430F2C34D92700103F3F093E0192
:1003A000B4461E001A00103666441560556095600C
:1003B000D5601032B242F8D101373F01DB190F2767
:1003C0000C22274022403C00002A0ED03E1FB608D7
:1003D000B400A4461A001C1D644420C2A242FCD1F1
:1003E00003240136B6009B193C40002C05D0C9B24D
:1003F0001C19197001339C42FBD1F0BD030014009D
:10040000C0E72700E2E7C046034B10B5002B02D03F
:10041000024800F005F810BD0000000031040000A3
:1004200010B5010000230022002000F019F810BDD3
:1004300070B5074D074C641BA41005D0013CA30008
:10044000EB589847002CF9D100F06CF870BDC0460D
:1004500030050000340500007047C0467047C046B4
:10046000F0B5D6464F464646C0B5264F82B0060088
:100470003868924698468946FFF7EEFF224B1B6884
:100480000193A423019A5B00D558002D2ED06C68EF
:100490001F2C30DC002E0FD1631C6B604B460234E6
:1004A000A40038686351FFF7D9FF002002B0E0BC18
:1004B000BA46B146A846F0BD882251462800A3009E
:1004C000EB189950873AA2408930FF3001681143F8
:1004D00001608421404649005850022EDCD12B0097
:1004E0008D33FF3319680A431A60D5E715004D357F
:1004F000FF35D550CBE73868FFF7B0FF0120404209
:10050000D4E7C046280400200C05000000000020AD
:10051000F8B5C046F8BC08BC9E4670470904000008
:10052000D9000000F8B5C046F8BC08BC9E4670472C
:04053000B100000016
:1005340000000000EC02002054030020BC03002053
:1005440000000000000000000000000000000000A7
:100554000000000000000000000000000000000097
:100564000000000000000000000000000000000087
:100574000000000000000000000000000000000077
:100584000000000000000000000000000000000067
:100594000000000000000000000000000000000057
:1005A4000000000000000000000000000000000047
:1005B4000000000000000000000000000000000037
:1005C4000000000000000000000000000000000027
:1005D4000000000000000000010000000000000016
:1005E4000E33CDAB34126DE6ECDE05000B000000DB
:1005F40000000000000000000000000000000000F7
:1006040000000000000000000000000000000000E6
:1006140000000000000000000000000000000000D6
:1006240000000000000000000000000000000000C6
:0C09540000000000000000004C04002027
:00000001FF
